:020000040800F2
:10000000001000202902000875020008750200088F
:1000100000000000000000000000000000000000E0
:100020000000000000000000000000007502000851
:1000300000000000000000007502000875020008C2
:100040007502000800000000750200087502000833
:1000500075020008750200087502000875020008A4
:100060000000000075020008750200087502000813
:100070007502000875020008750200080000000003
:100080007502000800000000000000007502000872
:1000900000000000750200087502000875020008E3
:1000A0000000000075020008000000007502000852
:1000B0000100343138C9043B9C461D60A64601004E
:1000C00020313CC990469946A246AB460100083112
:1000D000FCC941680068E54600BDC0467047C0469F
:1000E0007047C0467047C0467047C0467047C0461C
:1000F0007047C0467047C0467047C0467047C0460C
:100100007047C04601B401A801B585B0FFB408A886
:1001100041464A4653465C4665463EC001A83EC835
:100120000F98009000230CB401A900F023FA109B53
:1001300012B0184701B401A801B585B0FFB408A8F2
:1001400041464A4653465C4665463EC001A83EC805
:100150000F98009000230CB401A900F03DFA109B09
:1001600012B0184701B401A801B585B0FFB408A8C2
:1001700041464A4653465C4665463EC001A83EC8D5
:100180000F98009000230CB401A900F049FA109BCD
:1001900012B0184701B401A801B585B0FFB408A892
:1001A00041464A4653465C4665463EC001A83EC8A5
:1001B0000F98009000230CB401AB00F003FA109BE1
:1001C00012B0184701B401A801B585B0FFB408A862
:1001D00041464A4653465C4665463EC001A83EC875
:1001E0000F98009000230CB401AA00F073FA109B42
:1001F00012B0184780B500AFC046BD4680BD80B57F
:1002000000AFC046BD4680BD80B500AFC046BD460C
:1002100080BD80B584B000AFF860B9607A6000231B
:100220001800BD4604B080BD0C4885460C480D49F9
:100230000D4A002302E0D458C4500433C4188C4241
:10024000F9D30A4A0A4C002301E013600432A242A7
:10025000FBD300F011F8FFF7CDFFFEE70010002000
:100260000000002000000020F41000080000002022
:1002700000000020FEE7000070B50C4E0C4D761B10
:10028000B61005D0002408CD01349847A642FAD113
:10029000FFF7B5FF074E084D761BB61005D00024BA
:1002A00008CD01349847A642FAD170BDF410000879
:1002B000F4100008F4100008F410000803685A0055
:1002C00004D5802212061343C01870475B005B08F8
:1002D000FAE7C046F8B557464546DE464E469046D4
:1002E000E0B50700002924D04B1E9A46994600230A
:1002F0009B465B464B44DC0FE4186410E5007E1916
:100300003000FFF7DBFFA2450CD040450CD8280099
:1003100008303818FFF7D2FF013840450AD2631C75
:100320009B46E6E7404505D9A34502D0631E9946A2
:10033000DFE700263000F0BCBB46B246A946A04627
:10034000F8BDC0460300012805D0022807D00020D0
:10035000002B02D070470348FCE70348FAE7034844
:10036000F8E7C0463D0A0008310A0008490A0008BB
:1003700030B5214B050083B08C1E002B26D0200009
:1003800001A900E000BF00281DD001992200FFF75D
:10039000A1FF041E17D0FFF791FF6368A864012B2B
:1003A00027D0201D002B22DBFFF788FF00232B65C1
:1003B0000368E864002B0FDBFFF780FF03000020D9
:1003C0002B6103B030BD00230920F9E70B4B0C482B
:1003D0001B1AD9100191D9E71801000FFFF7B2FFDE
:1003E000424242410300092052421040E8E7012303
:1003F000DDE700230520E3E700000000F41000081B
:100400005C100008036810B50400DA0705D49B07E8
:100410000AD54830FFF766FE23685A070AD51A073F
:100420000FD5DB0615D510BD4830FFF757FE236802
:100430005A07F4D42000D030FFF758FE23681A077B
:10044000EFD420005130FF30FFF754FE2368DB0665
:10045000E9D42000D130FF30FFF750FEE3E7C0467B
:1004600003000068002800D0C01870477047C046DD
:1004700070B504000D002000296CFFF779FF0028FB
:1004800011D12B6C2A006361210001202369984758
:100490000828F0D0072806D10020296CFFF7E6FFD6
:1004A000281DFFF705FEFFF7AFFEC046F0B5CE46AC
:1004B000474680B5C3682E4C9946A544836904001D
:1004C00015000431402203A89846FFF7A2FE00233E
:1004D000029323E0F022129B5200636102A97AA8E2
:1004E000FFF797FE2100300023697AAA9847889B7E
:1004F000060013934346019302AB009322002300AE
:1005000029000120C84700281FD1F0227AA95200F3
:1005100002A8FFF77EFE0025082E1FD120001299A9
:10052000FFF726FF09350700EEB20028D2D0109B56
:10053000102113934346019302AB00932200230042
:1005400001203143C847002800D009273800F32391
:100550009B009D44C0BCB946B046F0BD072EF4D107
:1005600028001299FFF782FF03A8FFF7A1FDC046FC
:1005700034FCFFFF70B5CB6BF8B00B6405000E00C8
:100580004022043101A8FFF744FE01235B4200939F
:1005900006E06A4629002B6998470400082808D11C
:1005A00028001099FFF7E4FE0028F2D0092078B067
:1005B00070BD6846FFF726FF062CF7D131002800F2
:1005C000FFF756FF10B58261DA6BC1601A6419003B
:1005D0000022FFF76BFF10BD436970B50B64C36861
:1005E00004000D00002B13D10A0003690100022052
:1005F0009847072805D008280FD129002000FFF7C9
:1006000037FF0020296CFFF731FF281DFFF750FD51
:100610000122FFF74BFFFFF7F7FDFFF7F5FDC0469F
:10062000C36810B5002B05D0CB6B00220B64FFF71D
:100630003DFF10BDFFF79EFFFBE7C046012915D027
:100640000AD8002B10D10F2A0ED8920080184368C8
:10065000009A0020136006E001200339C9B28842E5
:1006600080414042013070470220FCE70120FAE758
:1006700000B585B003AB0A00009300210023FFF70B
:10068000DDFF039805B000BD012915D00AD8002B65
:1006900010D10F2A0ED8009B92001B68801843606F
:1006A000002006E001200339C9B28842804140425F
:1006B000013070470220FCE70120FAE700B585B061
:1006C00003AB039200930A0000230021FFF7DCFF35
:1006D00005B000BD70B5194CD36BA544136405007B
:1006E0000C0017A8111D4022FFF793FD01235B4268
:1006F000169313E00C2116A86A46FFF7DFFF2100CE
:1007000016A8A84700280FD16946049B16AA0830EE
:1007100098470600052808D0092805D0684626997C
:10072000FFF726FE0028E5D0092616A8FFF76AFE87
:1007300030008E239B009D4470BDC046C8FDFFFF66
:10074000F0B54E46994645465746DE460323924647
:100750004A46E0B5CD6C89B00340009308CD884689
:100760000695002A00D181E01A0C1B040593FF2393
:1007700013409B00ED18022304A94A7304AA1373C3
:10078000009B022B01D143469D6B43461B6DDB074B
:100790000FD5504605A900F0D1FA002801D1082054
:1007A00000E0092009B0F0BCBB46B246A946A0460D
:1007B000F0BD2F68002FECD00823034002930023E4
:1007C0000193013354469B464646BA464B46022B9C
:1007D00049D02B886F889A46043559463B008B4395
:1007E0009846B26C0F2120009044FFF741FF002390
:1007F000804506D853465A469343434498429B410A
:100800005B4202227F001740594652460A40174376
:10081000012F31D0022F4DD0002FC2D1009A002AD3
:1008200002D0002B00D09DE004352B689A46002BA7
:10083000CCD1200005A9A24600F080FA0028B0D152
:10084000019B002BABD00F215046FFF711FF0E216B
:1008500002005046FFF732FF50460F21734AFFF760
:100860002DFF07209EE76F680835B6E71B0205934A
:1008700004AB5A73032381E7009A002A49D1002B65
:1008800016D02F686B68FF0F9A1C00D189E73200E1
:1008900058320492013300D1B7E0281DFFF7E0FD84
:1008A0003A00010004AB300000E000BF00286DD129
:1008B0000835BAE72A6857009046009A7F08002A50
:1008C0000ED1002B04D0029B002B71D0002F3BD007
:1008D0004346002B00DA04350137BF00ED19A4E7C9
:1008E000336A0D2120009A46FFF7C2FE8245EFD100
:1008F000B36A9D42ECD10023F362043333632B1DB2
:10090000B76273632B68002B00DA89E0012301933F
:10091000E2E70D212000376AFFF7AAFE8742C7D120
:10092000B36A9D42C4D1B046A2462800FFF7C6FC78
:100930000F2102005046FFF7C1FE504642460021FB
:10094000FFF7BCFE07202DE7B046A2460D2150461A
:10095000FFF78EFE434642461862049B0620536210
:1009600095621FE72800FFF7A9FC0435A246B5638E
:100970000400300000E000BF002800D111E750461D
:1009800022000F21FFF79AFE07200BE7A2460D2158
:1009900004005046FFF76CFEB0463062022C3DD199
:1009A000049B2C363360434606205E629D62F9E666
:1009B0002B1D9A460023984658339C4621004A46F0
:1009C000B4445446A9468A463D0003924746E04651
:1009D0000EE0434620000493FFF742FD0022010091
:1009E00004AB300000E000BF01370434002804D11C
:1009F000AF42EED14D46B046A8E72F004D46039BCF
:100A0000544699462B68984662E7B0460D2120006F
:100A10001600FFF72DFE43461862C4E7049EC2E7A6
:100A2000781C8000B046A24628187FE7000000002E
:100A300010B50023FFF784FE10BDC04610B501239A
:100A4000FFF77EFE10BDC04610B50223FFF778FE0B
:100A500010BDC046F0B5CE46474680B5060014002E
:100A60001D00C3B003297DD059D8002900D181E0F1
:100A7000012979D1130C14049846240C012D00D1BE
:100A8000B2E0052D70D11B19202B6DD842460F2ADC
:100A900000D8CAE0A146002C00D0D8E00F2B3CD8EB
:100AA000012233681A4207D09343022230001343D5
:100AB00033604830FFF718FBB06B20AF002C2CD010
:100AC0000023994643460022D9007918E400835850
:100AD0008B5004329442FAD14B460019002B00D1BE
:100AE000DBE06F464146102900D210214B46002220
:100AF0001039C9007918DC0083588B5004329442B5
:100B0000FAD10019012D00D1D7E04346B0630F2B75
:100B100000D8DBE03800FFF7E9FA002025E00429DF
:100B200022D1002B20D1102A1ED8102203681A428D
:100B300000D0A4E020AF3800FFF7E2FA0125390029
:100B40000023B26B28009840044201D001CA08601B
:100B500001330431042BF5D13800B263FFF7CEFA2C
:100B6000002002E0032B1CD0022043B0C0BCB946D9
:100B7000B046F0BD002BF7D1002301271004B26B63
:100B8000000C311D3D009D40284201D020CA0D605F
:100B900001330431102BF5D10020A404E5D4B26355
:100BA000E3E71404150C240C2B19102BDCD80822B5
:100BB00003681A426AD120AF3800FFF79DFAED00B2
:100BC000B36B002C0AD0ED1AE4002A1F1C19BA18C6
:100BD0001900096804339950A342F9D13800B3636E
:100BE000FFF788FA0020C0E71B19102BBCD843463A
:100BF0000F2BB9D833681D4206D00322300093432F
:100C000033604830FFF76CFA20AF3800FFF768FA1E
:100C10000023B06B9946002C00D053E70430B0633A
:100C20003800FFF75BFA00209FE7102B50D9102205
:100C30005242914699443368194209D0012230004A
:100C400093430132134333604830FFF74DFA336862
:100C500004221A4233D143460F2B03D820AF380069
:100C6000FFF742FA6F463800FFF742FA1024434676
:100C7000B06BE41A002C00DC34E720AF22E793438A
:100C80000360D130FF30FFF73BFA53E79343036033
:100C90005130FF30FFF730FA8DE7012DBED04346CB
:100CA000B0630F2B00D938E73800FFF71BFA4B462B
:100CB000002B00D131E76F462CE720AFAEE73000C4
:100CC00093433360D030FFF713FAC4E720AFEBE76C
:100CD00033680B4215D0012230009343921813431E
:100CE00033604830FFF700FA20AF3800FFF7FCF917
:100CF000B06B002C00D0E3E63800FFF7F3F90020DA
:100D000033E70F2AF0D9D7E6027A0300002A0BD185
:100D1000427A002A0FD0013A42724268111D4160A6
:100D200003211268017202E0013A02720268100E99
:100D300012021A607047B020FCE7C046F0B54E467C
:100D400045465746DE460023E0B587B003930F3390
:100D50009846083B994680231B0305000E009A46DF
:100D60003000FFF7D1FF0700B02800D1B8E003063C
:100D700029D5030042469343DBB2802B4BD0902B06
:100D800035D0A02B63D0B02B00D176E0C02B00D1A2
:100D90008CE003004A469343DBB2D02B0AD1534682
:100DA000024001321A43052301212800FFF752FEB9
:100DB0000028D5D00924200007B0F0BCBB46B246BD
:100DC000A946A046F0BDFF2382001340043305ACC2
:100DD0009B460D220023002128000094FFF72EFCE3
:100DE000059B7F0630D55A469B1A05930BE0833B43
:100DF00003400D2BDED005AC02400023002128006B
:100E00000094FFF71BFC00230D2200212800009412
:100E1000FFF73AFCA4E707023000FFF775FF8024D4
:100E200038432402A042C5D007010005020C00236C
:100E300000212800FFF70EFE0028BBD1274200D179
:100E40008EE7012303938BE75B440593DBE7FF23E6
:100E50004A461B011900824311410A001A403F070C
:100E600002D58023DB011A43002300212800FFF76D
:100E7000F1FD002800D173E79CE7B12844D0B228E7
:100E800000D19EE0B32854D0FC230340B42B91D072
:100E90004A465346024001321A43012101232800E9
:100EA000FFF7D8FD002800D15AE783E7C6284BD0CA
:100EB000C7285DD003004A469343DBB2C02B6CD0F9
:100EC000C82871D0C92800D074E73000FFF71CFF94
:100ED000F02203031203134042460240013261E74D
:100EE000039B0024002B00D065E705AE0E220021F5
:100EF00028000096FFF7A2FB00230F220021280004
:100F00000096FFF7C1FB56E73000FFF7FDFE021E1B
:100F100000D14FE7030041468B43DBB2002B00D0EA
:100F200048E700212800FFF795FD002800D117E7CA
:100F300040E73000FFF7E8FEF022030312031340FE
:100F4000424602400132A7E73000FFF7DDFEF02203
:100F50000303120313404246024001321A430323A3
:100F600003212800FFF776FD002800D1F8E621E7ED
:100F70003000FFF7C9FE021E00D11BE70300414607
:100F80008B43DBB2002B00D014E704212800FFF7CD
:100F900061FD002800D1E3E60CE74346A0221F4094
:100FA000013712033A43DAE73000FFF7ADFE43465C
:100FB00002009A43D2B210321840120301300243A9
:100FC000F1E605AC00230D22002128000094FFF774
:100FD00035FB3000FFF798FE0223059F9B46030672
:100FE00010D523005C469B467F231840A0403F1845
:100FF000300005970734FFF787FE0306F4D45B46FD
:10100000A3461C007F235A4603409340812292004E
:1010100094466744DB19F83A059300210023280021
:0C1020000094FF3AFFF730FB9AE6C04650
:10102C0072B20181B0AB30800000000080080181F9
:10103C00B0B0ABF0000000003F020181B0AB3080DB
:10104C000000000080060181B0B0ABF00000000091
:10105C001CF2FF7FB0B0AA8058F2FF7F01000000A5
:10106C0004F3FF7FB0A9028090F3FF7FB0B0A8809B
:10107C00E4F3FF7F01000000ECF3FF7FB0B0AA8027
:10108C0020F4FF7F9CFFFF7FE0F4FF7FAA3F3780B7
:10109C0028F5FF7FB0B0A88034F5FF7FB0B0AA80F0
:1010AC0074F5FF7FB0B0A88088F5FF7F01000000C9
:1010BC0018F6FF7FAA0DB2807CF6FF7F70FFFF7FD2
:1010CC0064F9FF7FB0B0A88080F9FF7F6CFFFF7FD1
:1010DC002CFCFF7F0100000058FCFF7F68FFFF7FA6
:0810EC0040FFFF7F010000003E
:0400000508000229C4
:00000001FF
